{
  "_format": "hh-sol-artifact-1",
  "contractName": "MyEpicNFT",
  "sourceName": "contracts/MyEpicNFT.sol",
  "abi": [
    {
      "inputs": [],
      "stateMutability": "nonpayable",
      "type": "constructor"
    },
    {
      "anonymous": false,
      "inputs": [
        {
          "indexed": true,
          "internalType": "address",
          "name": "owner",
          "type": "address"
        },
        {
          "indexed": true,
          "internalType": "address",
          "name": "approved",
          "type": "address"
        },
        {
          "indexed": true,
          "internalType": "uint256",
          "name": "tokenId",
          "type": "uint256"
        }
      ],
      "name": "Approval",
      "type": "event"
    },
    {
      "anonymous": false,
      "inputs": [
        {
          "indexed": true,
          "internalType": "address",
          "name": "owner",
          "type": "address"
        },
        {
          "indexed": true,
          "internalType": "address",
          "name": "operator",
          "type": "address"
        },
        {
          "indexed": false,
          "internalType": "bool",
          "name": "approved",
          "type": "bool"
        }
      ],
      "name": "ApprovalForAll",
      "type": "event"
    },
    {
      "anonymous": false,
      "inputs": [
        {
          "indexed": false,
          "internalType": "address",
          "name": "sender",
          "type": "address"
        },
        {
          "indexed": false,
          "internalType": "uint256",
          "name": "tokenId",
          "type": "uint256"
        }
      ],
      "name": "NewEpicNFTMinted",
      "type": "event"
    },
    {
      "anonymous": false,
      "inputs": [
        {
          "indexed": true,
          "internalType": "address",
          "name": "from",
          "type": "address"
        },
        {
          "indexed": true,
          "internalType": "address",
          "name": "to",
          "type": "address"
        },
        {
          "indexed": true,
          "internalType": "uint256",
          "name": "tokenId",
          "type": "uint256"
        }
      ],
      "name": "Transfer",
      "type": "event"
    },
    {
      "inputs": [
        {
          "internalType": "address",
          "name": "to",
          "type": "address"
        },
        {
          "internalType": "uint256",
          "name": "tokenId",
          "type": "uint256"
        }
      ],
      "name": "approve",
      "outputs": [],
      "stateMutability": "nonpayable",
      "type": "function"
    },
    {
      "inputs": [
        {
          "internalType": "address",
          "name": "owner",
          "type": "address"
        }
      ],
      "name": "balanceOf",
      "outputs": [
        {
          "internalType": "uint256",
          "name": "",
          "type": "uint256"
        }
      ],
      "stateMutability": "view",
      "type": "function"
    },
    {
      "inputs": [
        {
          "internalType": "uint256",
          "name": "tokenId",
          "type": "uint256"
        }
      ],
      "name": "getApproved",
      "outputs": [
        {
          "internalType": "address",
          "name": "",
          "type": "address"
        }
      ],
      "stateMutability": "view",
      "type": "function"
    },
    {
      "inputs": [
        {
          "internalType": "address",
          "name": "owner",
          "type": "address"
        },
        {
          "internalType": "address",
          "name": "operator",
          "type": "address"
        }
      ],
      "name": "isApprovedForAll",
      "outputs": [
        {
          "internalType": "bool",
          "name": "",
          "type": "bool"
        }
      ],
      "stateMutability": "view",
      "type": "function"
    },
    {
      "inputs": [],
      "name": "makeAnEpicNFT",
      "outputs": [],
      "stateMutability": "nonpayable",
      "type": "function"
    },
    {
      "inputs": [],
      "name": "name",
      "outputs": [
        {
          "internalType": "string",
          "name": "",
          "type": "string"
        }
      ],
      "stateMutability": "view",
      "type": "function"
    },
    {
      "inputs": [
        {
          "internalType": "uint256",
          "name": "tokenId",
          "type": "uint256"
        }
      ],
      "name": "ownerOf",
      "outputs": [
        {
          "internalType": "address",
          "name": "",
          "type": "address"
        }
      ],
      "stateMutability": "view",
      "type": "function"
    },
    {
      "inputs": [
        {
          "internalType": "uint256",
          "name": "tokenId",
          "type": "uint256"
        }
      ],
      "name": "pickRandomColor",
      "outputs": [
        {
          "internalType": "string",
          "name": "",
          "type": "string"
        }
      ],
      "stateMutability": "view",
      "type": "function"
    },
    {
      "inputs": [
        {
          "internalType": "uint256",
          "name": "tokenId",
          "type": "uint256"
        }
      ],
      "name": "pickRandomFirstWord",
      "outputs": [
        {
          "internalType": "string",
          "name": "",
          "type": "string"
        }
      ],
      "stateMutability": "view",
      "type": "function"
    },
    {
      "inputs": [
        {
          "internalType": "uint256",
          "name": "tokenId",
          "type": "uint256"
        }
      ],
      "name": "pickRandomSecondWord",
      "outputs": [
        {
          "internalType": "string",
          "name": "",
          "type": "string"
        }
      ],
      "stateMutability": "view",
      "type": "function"
    },
    {
      "inputs": [
        {
          "internalType": "uint256",
          "name": "tokenId",
          "type": "uint256"
        }
      ],
      "name": "pickRandomThirdWord",
      "outputs": [
        {
          "internalType": "string",
          "name": "",
          "type": "string"
        }
      ],
      "stateMutability": "view",
      "type": "function"
    },
    {
      "inputs": [
        {
          "internalType": "address",
          "name": "from",
          "type": "address"
        },
        {
          "internalType": "address",
          "name": "to",
          "type": "address"
        },
        {
          "internalType": "uint256",
          "name": "tokenId",
          "type": "uint256"
        }
      ],
      "name": "safeTransferFrom",
      "outputs": [],
      "stateMutability": "nonpayable",
      "type": "function"
    },
    {
      "inputs": [
        {
          "internalType": "address",
          "name": "from",
          "type": "address"
        },
        {
          "internalType": "address",
          "name": "to",
          "type": "address"
        },
        {
          "internalType": "uint256",
          "name": "tokenId",
          "type": "uint256"
        },
        {
          "internalType": "bytes",
          "name": "_data",
          "type": "bytes"
        }
      ],
      "name": "safeTransferFrom",
      "outputs": [],
      "stateMutability": "nonpayable",
      "type": "function"
    },
    {
      "inputs": [
        {
          "internalType": "address",
          "name": "operator",
          "type": "address"
        },
        {
          "internalType": "bool",
          "name": "approved",
          "type": "bool"
        }
      ],
      "name": "setApprovalForAll",
      "outputs": [],
      "stateMutability": "nonpayable",
      "type": "function"
    },
    {
      "inputs": [
        {
          "internalType": "bytes4",
          "name": "interfaceId",
          "type": "bytes4"
        }
      ],
      "name": "supportsInterface",
      "outputs": [
        {
          "internalType": "bool",
          "name": "",
          "type": "bool"
        }
      ],
      "stateMutability": "view",
      "type": "function"
    },
    {
      "inputs": [],
      "name": "symbol",
      "outputs": [
        {
          "internalType": "string",
          "name": "",
          "type": "string"
        }
      ],
      "stateMutability": "view",
      "type": "function"
    },
    {
      "inputs": [
        {
          "internalType": "uint256",
          "name": "tokenId",
          "type": "uint256"
        }
      ],
      "name": "tokenURI",
      "outputs": [
        {
          "internalType": "string",
          "name": "",
          "type": "string"
        }
      ],
      "stateMutability": "view",
      "type": "function"
    },
    {
      "inputs": [
        {
          "internalType": "address",
          "name": "from",
          "type": "address"
        },
        {
          "internalType": "address",
          "name": "to",
          "type": "address"
        },
        {
          "internalType": "uint256",
          "name": "tokenId",
          "type": "uint256"
        }
      ],
      "name": "transferFrom",
      "outputs": [],
      "stateMutability": "nonpayable",
      "type": "function"
    }
  ],
  "bytecode": "0x608060405260405180610100016040528060d38152602001620043e060d3913960089080519060200190620000369291906200082c565b50604051806080016040528060568152602001620044b36056913960099080519060200190620000689291906200082c565b506040518060c001604052806040518060400160405280600981526020017f6f626e6f78696f7573000000000000000000000000000000000000000000000081525081526020016040518060400160405280600781526020017f616261736865640000000000000000000000000000000000000000000000000081525081526020016040518060400160405280600d81526020017f666c61626265726761737465640000000000000000000000000000000000000081525081526020016040518060400160405280600481526020017f626f79730000000000000000000000000000000000000000000000000000000081525081526020016040518060400160405280600681526020017f66696173636f000000000000000000000000000000000000000000000000000081525081526020016040518060400160405280600381526020017f7369700000000000000000000000000000000000000000000000000000000000815250815250600a906006620001e6929190620008bd565b506040518060c001604052806040518060400160405280600781526020017f62756d706b696e0000000000000000000000000000000000000000000000000081525081526020016040518060400160405280600981526020017f6361636f70686f6e79000000000000000000000000000000000000000000000081525081526020016040518060400160405280600881526020017f63616c616d69747900000000000000000000000000000000000000000000000081525081526020016040518060400160405280600881526020017f66616e64616e676f00000000000000000000000000000000000000000000000081525081526020016040518060400160405280600c81526020017f676c6f626574726f74746572000000000000000000000000000000000000000081525081526020016040518060400160405280600781526020017f686f746865616400000000000000000000000000000000000000000000000000815250815250600b90600662000364929190620008bd565b506040518060c001604052806040518060400160405280600681526020017f656172776967000000000000000000000000000000000000000000000000000081525081526020016040518060400160405280600d81526020017f6a69626265722d6a61626265720000000000000000000000000000000000000081525081526020016040518060400160405280600681526020017f61706f676565000000000000000000000000000000000000000000000000000081525081526020016040518060400160405280600a81526020017f6368696d65726963616c0000000000000000000000000000000000000000000081525081526020016040518060400160405280600981526020017f666f70646f6f646c65000000000000000000000000000000000000000000000081525081526020016040518060400160405280600681526020017f656c697869720000000000000000000000000000000000000000000000000000815250815250600c906006620004e2929190620008bd565b506040518060c001604052806040518060400160405280600381526020017f726564000000000000000000000000000000000000000000000000000000000081525081526020016040518060400160405280600781526020017f233038433241380000000000000000000000000000000000000000000000000081525081526020016040518060400160405280600581526020017f626c61636b00000000000000000000000000000000000000000000000000000081525081526020016040518060400160405280600681526020017f79656c6c6f77000000000000000000000000000000000000000000000000000081525081526020016040518060400160405280600481526020017f626c75650000000000000000000000000000000000000000000000000000000081525081526020016040518060400160405280600581526020017f677265656e000000000000000000000000000000000000000000000000000000815250815250600d90600662000660929190620008bd565b503480156200066e57600080fd5b506040518060400160405280600981526020017f5371756172654e465400000000000000000000000000000000000000000000008152506040518060400160405280600681526020017f53515541524500000000000000000000000000000000000000000000000000008152508160009080519060200190620006f39291906200082c565b5080600190805190602001906200070c9291906200082c565b5050506200075a6040518060400160405280601d81526020017f54686973206973206d79204e465420636f6e74726163742e2057686f610000008152506200076060201b620012521760201c565b62000ade565b6200080081604051602401620007779190620009f2565b6040516020818303038152906040527f41304fac000000000000000000000000000000000000000000000000000000007bffffffffffffffffffffffffffffffffffffffffffffffffffffffff19166020820180517bffffffffffffffffffffffffffffffffffffffffffffffffffffffff83818316178352505050506200080360201b60201c565b50565b60008151905060006a636f6e736f6c652e6c6f679050602083016000808483855afa5050505050565b8280546200083a9062000a68565b90600052602060002090601f0160209004810192826200085e5760008555620008aa565b82601f106200087957805160ff1916838001178555620008aa565b82800160010185558215620008aa579182015b82811115620008a95782518255916020019190600101906200088c565b5b509050620008b9919062000924565b5090565b82805482825590600052602060002090810192821562000911579160200282015b8281111562000910578251829080519060200190620008ff9291906200082c565b5091602001919060010190620008de565b5b50905062000920919062000943565b5090565b5b808211156200093f57600081600090555060010162000925565b5090565b5b808211156200096757600081816200095d91906200096b565b5060010162000944565b5090565b508054620009799062000a68565b6000825580601f106200098d5750620009ae565b601f016020900490600052602060002090810190620009ad919062000924565b5b50565b6000620009be8262000a16565b620009ca818562000a21565b9350620009dc81856020860162000a32565b620009e78162000acd565b840191505092915050565b6000602082019050818103600083015262000a0e8184620009b1565b905092915050565b600081519050919050565b600082825260208201905092915050565b60005b8381101562000a5257808201518184015260208101905062000a35565b8381111562000a62576000848401525b50505050565b6000600282049050600182168062000a8157607f821691505b6020821081141562000a985762000a9762000a9e565b5b50919050565b7f4e487b7100000000000000000000000000000000000000000000000000000000600052602260045260246000fd5b6000601f19601f8301169050919050565b6138f28062000aee6000396000f3fe608060405234801561001057600080fd5b50600436106101165760003560e01c806370a08231116100a2578063b88d4fde11610071578063b88d4fde14610317578063c575757a14610333578063c87b56dd14610363578063de9d132f14610393578063e985e9c51461039d57610116565b806370a082311461027d57806395d89b41146102ad578063a22cb465146102cb578063b187301f146102e757610116565b806323b872dd116100e957806323b872dd146101b55780632de38d68146101d157806342842e0e14610201578063514dc8c61461021d5780636352211e1461024d57610116565b806301ffc9a71461011b57806306fdde031461014b578063081812fc14610169578063095ea7b314610199575b600080fd5b61013560048036038101906101309190612652565b6103cd565b6040516101429190613168565b60405180910390f35b6101536104af565b6040516101609190613183565b60405180910390f35b610183600480360381019061017e91906126a4565b610541565b60405161019091906130d8565b60405180910390f35b6101b360048036038101906101ae9190612616565b6105c6565b005b6101cf60048036038101906101ca9190612510565b6106de565b005b6101eb60048036038101906101e691906126a4565b61073e565b6040516101f89190613183565b60405180910390f35b61021b60048036038101906102169190612510565b610866565b005b610237600480360381019061023291906126a4565b610886565b6040516102449190613183565b60405180910390f35b610267600480360381019061026291906126a4565b6109ae565b60405161027491906130d8565b60405180910390f35b610297600480360381019061029291906124ab565b610a60565b6040516102a491906133e3565b60405180910390f35b6102b5610b18565b6040516102c29190613183565b60405180910390f35b6102e560048036038101906102e091906125da565b610baa565b005b61030160048036038101906102fc91906126a4565b610bc0565b60405161030e9190613183565b60405180910390f35b610331600480360381019061032c919061255f565b610ce8565b005b61034d600480360381019061034891906126a4565b610d4a565b60405161035a9190613183565b60405180910390f35b61037d600480360381019061037891906126a4565b610e72565b60405161038a9190613183565b60405180910390f35b61039b610fc4565b005b6103b760048036038101906103b291906124d4565b6111be565b6040516103c49190613168565b60405180910390f35b60007f80ac58cd000000000000000000000000000000000000000000000000000000007bffffffffffffffffffffffffffffffffffffffffffffffffffffffff1916827bffffffffffffffffffffffffffffffffffffffffffffffffffffffff1916148061049857507f5b5e139f000000000000000000000000000000000000000000000000000000007bffffffffffffffffffffffffffffffffffffffffffffffffffffffff1916827bffffffffffffffffffffffffffffffffffffffffffffffffffffffff1916145b806104a857506104a7826112eb565b5b9050919050565b6060600080546104be90613682565b80601f01602080910402602001604051908101604052809291908181526020018280546104ea90613682565b80156105375780601f1061050c57610100808354040283529160200191610537565b820191906000526020600020905b81548152906001019060200180831161051a57829003601f168201915b5050505050905090565b600061054c82611355565b61058b576040517f08c379a000000000000000000000000000000000000000000000000000000000815260040161058290613343565b60405180910390fd5b6004600083815260200190815260200160002060009054906101000a900473ffffffffffffffffffffffffffffffffffffffff169050919050565b60006105d1826109ae565b90508073ffffffffffffffffffffffffffffffffffffffff168373ffffffffffffffffffffffffffffffffffffffff161415610642576040517f08c379a0000000000000000000000000000000000000000000000000000000008152600401610639906133a3565b60405180910390fd5b8073ffffffffffffffffffffffffffffffffffffffff166106616113c1565b73ffffffffffffffffffffffffffffffffffffffff161480610690575061068f8161068a6113c1565b6111be565b5b6106cf576040517f08c379a00000000000000000000000000000000000000000000000000000000081526004016106c690613283565b60405180910390fd5b6106d983836113c9565b505050565b6106ef6106e96113c1565b82611482565b61072e576040517f08c379a0000000000000000000000000000000000000000000000000000000008152600401610725906133c3565b60405180910390fd5b610739838383611560565b505050565b6060600061077c61074e426117bc565b610757856117bc565b604051602001610768929190612fd3565b604051602081830303815290604052611969565b9050600a805490508161078f91906136fd565b9050600a81815481106107cb577f4e487b7100000000000000000000000000000000000000000000000000000000600052603260045260246000fd5b9060005260206000200180546107e090613682565b80601f016020809104026020016040519081016040528092919081815260200182805461080c90613682565b80156108595780601f1061082e57610100808354040283529160200191610859565b820191906000526020600020905b81548152906001019060200180831161083c57829003601f168201915b5050505050915050919050565b61088183838360405180602001604052806000815250610ce8565b505050565b606060006108c4610896426117bc565b61089f856117bc565b6040516020016108b0929190612fd3565b604051602081830303815290604052611969565b9050600d80549050816108d791906136fd565b9050600d8181548110610913577f4e487b7100000000000000000000000000000000000000000000000000000000600052603260045260246000fd5b90600052602060002001805461092890613682565b80601f016020809104026020016040519081016040528092919081815260200182805461095490613682565b80156109a15780601f10610976576101008083540402835291602001916109a1565b820191906000526020600020905b81548152906001019060200180831161098457829003601f168201915b5050505050915050919050565b6000806002600084815260200190815260200160002060009054906101000a900473ffffffffffffffffffffffffffffffffffffffff169050600073ffffffffffffffffffffffffffffffffffffffff168173ffffffffffffffffffffffffffffffffffffffff161415610a57576040517f08c379a0000000000000000000000000000000000000000000000000000000008152600401610a4e906132c3565b60405180910390fd5b80915050919050565b60008073ffffffffffffffffffffffffffffffffffffffff168273ffffffffffffffffffffffffffffffffffffffff161415610ad1576040517f08c379a0000000000000000000000000000000000000000000000000000000008152600401610ac8906132a3565b60405180910390fd5b600360008373ffffffffffffffffffffffffffffffffffffffff1673ffffffffffffffffffffffffffffffffffffffff168152602001908152602001600020549050919050565b606060018054610b2790613682565b80601f0160208091040260200160405190810160405280929190818152602001828054610b5390613682565b8015610ba05780601f10610b7557610100808354040283529160200191610ba0565b820191906000526020600020905b815481529060010190602001808311610b8357829003601f168201915b5050505050905090565b610bbc610bb56113c1565b838361199c565b5050565b60606000610bfe610bd0426117bc565b610bd9856117bc565b604051602001610bea929190612fd3565b604051602081830303815290604052611969565b9050600b8054905081610c1191906136fd565b9050600b8181548110610c4d577f4e487b7100000000000000000000000000000000000000000000000000000000600052603260045260246000fd5b906000526020600020018054610c6290613682565b80601f0160208091040260200160405190810160405280929190818152602001828054610c8e90613682565b8015610cdb5780601f10610cb057610100808354040283529160200191610cdb565b820191906000526020600020905b815481529060010190602001808311610cbe57829003601f168201915b5050505050915050919050565b610cf9610cf36113c1565b83611482565b610d38576040517f08c379a0000000000000000000000000000000000000000000000000000000008152600401610d2f906133c3565b60405180910390fd5b610d4484848484611b09565b50505050565b60606000610d88610d5a426117bc565b610d63856117bc565b604051602001610d74929190612fd3565b604051602081830303815290604052611969565b9050600c8054905081610d9b91906136fd565b9050600c8181548110610dd7577f4e487b7100000000000000000000000000000000000000000000000000000000600052603260045260246000fd5b906000526020600020018054610dec90613682565b80601f0160208091040260200160405190810160405280929190818152602001828054610e1890613682565b8015610e655780601f10610e3a57610100808354040283529160200191610e65565b820191906000526020600020905b815481529060010190602001808311610e4857829003601f168201915b5050505050915050919050565b6060610e7d82611355565b610ebc576040517f08c379a0000000000000000000000000000000000000000000000000000000008152600401610eb390613323565b60405180910390fd5b6000600660008481526020019081526020016000208054610edc90613682565b80601f0160208091040260200160405190810160405280929190818152602001828054610f0890613682565b8015610f555780601f10610f2a57610100808354040283529160200191610f55565b820191906000526020600020905b815481529060010190602001808311610f3857829003601f168201915b505050505090506000610f66611b65565b9050600081511415610f7c578192505050610fbf565b600082511115610fb1578082604051602001610f99929190612fd3565b60405160208183030381529060405292505050610fbf565b610fba84611b7c565b925050505b919050565b6000610fd06007611c23565b90506000610fdd8261073e565b90506000610fea83610bc0565b90506000610ff784610d4a565b9050600083838360405160200161101093929190612ff7565b6040516020818303038152906040529050600061102c86610886565b905060006008826009856040516020016110499493929190613028565b6040516020818303038152906040529050600061108e8461106984611c31565b60405160200161107a929190613071565b604051602081830303815290604052611c31565b90506000816040516020016110a391906130b6565b60405160208183030381529060405290506110f26040518060400160405280601581526020017f0a2d2d2d2d2d2d2d2d2d2d2d2d2d2d2d2d2d2d2d2d0000000000000000000000815250611252565b6110fb81611252565b6111396040518060400160405280601581526020017f2d2d2d2d2d2d2d2d2d2d2d2d2d2d2d2d2d2d2d2d0a0000000000000000000000815250611252565b611143338a611def565b61114d8982611e0d565b6111576007611e81565b61117a604051806060016040528060258152602001613858602591398a33611e97565b7febb98688741ffa4c7589bf325de30cf7becb63de567842e1ccdb6cb949fdc82c338a6040516111ab92919061313f565b60405180910390a1505050505050505050565b6000600560008473ffffffffffffffffffffffffffffffffffffffff1673ffffffffffffffffffffffffffffffffffffffff16815260200190815260200160002060008373ffffffffffffffffffffffffffffffffffffffff1673ffffffffffffffffffffffffffffffffffffffff16815260200190815260200160002060009054906101000a900460ff16905092915050565b6112e8816040516024016112669190613183565b6040516020818303038152906040527f41304fac000000000000000000000000000000000000000000000000000000007bffffffffffffffffffffffffffffffffffffffffffffffffffffffff19166020820180517bffffffffffffffffffffffffffffffffffffffffffffffffffffffff8381831617835250505050611f36565b50565b60007f01ffc9a7000000000000000000000000000000000000000000000000000000007bffffffffffffffffffffffffffffffffffffffffffffffffffffffff1916827bffffffffffffffffffffffffffffffffffffffffffffffffffffffff1916149050919050565b60008073ffffffffffffffffffffffffffffffffffffffff166002600084815260200190815260200160002060009054906101000a900473ffffffffffffffffffffffffffffffffffffffff1673ffffffffffffffffffffffffffffffffffffffff1614159050919050565b600033905090565b816004600083815260200190815260200160002060006101000a81548173ffffffffffffffffffffffffffffffffffffffff021916908373ffffffffffffffffffffffffffffffffffffffff160217905550808273ffffffffffffffffffffffffffffffffffffffff1661143c836109ae565b73ffffffffffffffffffffffffffffffffffffffff167f8c5be1e5ebec7d5bd14f71427d1e84f3dd0314c0f7b2291e5b200ac8c7c3b92560405160405180910390a45050565b600061148d82611355565b6114cc576040517f08c379a00000000000000000000000000000000000000000000000000000000081526004016114c390613263565b60405180910390fd5b60006114d7836109ae565b90508073ffffffffffffffffffffffffffffffffffffffff168473ffffffffffffffffffffffffffffffffffffffff16148061154657508373ffffffffffffffffffffffffffffffffffffffff1661152e84610541565b73ffffffffffffffffffffffffffffffffffffffff16145b80611557575061155681856111be565b5b91505092915050565b8273ffffffffffffffffffffffffffffffffffffffff16611580826109ae565b73ffffffffffffffffffffffffffffffffffffffff16146115d6576040517f08c379a00000000000000000000000000000000000000000000000000000000081526004016115cd90613363565b60405180910390fd5b600073ffffffffffffffffffffffffffffffffffffffff168273ffffffffffffffffffffffffffffffffffffffff161415611646576040517f08c379a000000000000000000000000000000000000000000000000000000000815260040161163d90613223565b60405180910390fd5b611651838383611f5f565b61165c6000826113c9565b6001600360008573ffffffffffffffffffffffffffffffffffffffff1673ffffffffffffffffffffffffffffffffffffffff16815260200190815260200160002060008282546116ac9190613598565b925050819055506001600360008473ffffffffffffffffffffffffffffffffffffffff1673ffffffffffffffffffffffffffffffffffffffff168152602001908152602001600020600082825461170391906134b7565b92505081905550816002600083815260200190815260200160002060006101000a81548173ffffffffffffffffffffffffffffffffffffffff021916908373ffffffffffffffffffffffffffffffffffffffff160217905550808273ffffffffffffffffffffffffffffffffffffffff168473ffffffffffffffffffffffffffffffffffffffff167fddf252ad1be2c89b69c2b068fc378daa952ba7f163c4a11628f55a4df523b3ef60405160405180910390a4505050565b60606000821415611804576040518060400160405280600181526020017f30000000000000000000000000000000000000000000000000000000000000008152509050611964565b600082905060005b6000821461183657808061181f906136b4565b915050600a8261182f919061350d565b915061180c565b60008167ffffffffffffffff811115611878577f4e487b7100000000000000000000000000000000000000000000000000000000600052604160045260246000fd5b6040519080825280601f01601f1916602001820160405280156118aa5781602001600182028036833780820191505090505b5090505b6000851461195d576001826118c39190613598565b9150600a856118d291906136fd565b60306118de91906134b7565b60f81b81838151811061191a577f4e487b7100000000000000000000000000000000000000000000000000000000600052603260045260246000fd5b60200101907effffffffffffffffffffffffffffffffffffffffffffffffffffffffffffff1916908160001a905350600a85611956919061350d565b94506118ae565b8093505050505b919050565b60008160405160200161197c9190612fbc565b6040516020818303038152906040528051906020012060001c9050919050565b8173ffffffffffffffffffffffffffffffffffffffff168373ffffffffffffffffffffffffffffffffffffffff161415611a0b576040517f08c379a0000000000000000000000000000000000000000000000000000000008152600401611a0290613243565b60405180910390fd5b80600560008573ffffffffffffffffffffffffffffffffffffffff1673ffffffffffffffffffffffffffffffffffffffff16815260200190815260200160002060008473ffffffffffffffffffffffffffffffffffffffff1673ffffffffffffffffffffffffffffffffffffffff16815260200190815260200160002060006101000a81548160ff0219169083151502179055508173ffffffffffffffffffffffffffffffffffffffff168373ffffffffffffffffffffffffffffffffffffffff167f17307eab39ab6107e8899845ad3d59bd9653f200f220920489ca2b5937696c3183604051611afc9190613168565b60405180910390a3505050565b611b14848484611560565b611b2084848484611f64565b611b5f576040517f08c379a0000000000000000000000000000000000000000000000000000000008152600401611b56906131e3565b60405180910390fd5b50505050565b606060405180602001604052806000815250905090565b6060611b8782611355565b611bc6576040517f08c379a0000000000000000000000000000000000000000000000000000000008152600401611bbd90613383565b60405180910390fd5b6000611bd0611b65565b90506000815111611bf05760405180602001604052806000815250611c1b565b80611bfa846117bc565b604051602001611c0b929190612fd3565b6040516020818303038152906040525b915050919050565b600081600001549050919050565b60606000825190506000811415611c5a5760405180602001604052806000815250915050611dea565b60006003600283611c6b91906134b7565b611c75919061350d565b6004611c81919061353e565b90506000602082611c9291906134b7565b67ffffffffffffffff811115611cd1577f4e487b7100000000000000000000000000000000000000000000000000000000600052604160045260246000fd5b6040519080825280601f01601f191660200182016040528015611d035781602001600182028036833780820191505090505b509050600060405180606001604052806040815260200161387d604091399050600181016020830160005b86811015611da75760038101905062ffffff818a015116603f8160121c168401518060081b905060ff603f83600c1c1686015116810190508060081b905060ff603f8360061c1686015116810190508060081b905060ff603f831686015116810190508060e01b90508084526004840193505050611d2e565b506003860660018114611dc15760028114611dd157611ddc565b613d3d60f01b6002830352611ddc565b603d60f81b60018303525b508484525050819450505050505b919050565b611e098282604051806020016040528060008152506120fb565b5050565b611e1682611355565b611e55576040517f08c379a0000000000000000000000000000000000000000000000000000000008152600401611e4c906132e3565b60405180910390fd5b80600660008481526020019081526020016000209080519060200190611e7c929190612337565b505050565b6001816000016000828254019250508190555050565b611f31838383604051602401611eaf939291906131a5565b6040516020818303038152906040527fe3849f79000000000000000000000000000000000000000000000000000000007bffffffffffffffffffffffffffffffffffffffffffffffffffffffff19166020820180517bffffffffffffffffffffffffffffffffffffffffffffffffffffffff8381831617835250505050611f36565b505050565b60008151905060006a636f6e736f6c652e6c6f679050602083016000808483855afa5050505050565b505050565b6000611f858473ffffffffffffffffffffffffffffffffffffffff16612156565b156120ee578373ffffffffffffffffffffffffffffffffffffffff1663150b7a02611fae6113c1565b8786866040518563ffffffff1660e01b8152600401611fd094939291906130f3565b602060405180830381600087803b158015611fea57600080fd5b505af192505050801561201b57506040513d601f19601f82011682018060405250810190612018919061267b565b60015b61209e573d806000811461204b576040519150601f19603f3d011682016040523d82523d6000602084013e612050565b606091505b50600081511415612096576040517f08c379a000000000000000000000000000000000000000000000000000000000815260040161208d906131e3565b60405180910390fd5b805181602001fd5b63150b7a0260e01b7bffffffffffffffffffffffffffffffffffffffffffffffffffffffff1916817bffffffffffffffffffffffffffffffffffffffffffffffffffffffff1916149150506120f3565b600190505b949350505050565b6121058383612169565b6121126000848484611f64565b612151576040517f08c379a0000000000000000000000000000000000000000000000000000000008152600401612148906131e3565b60405180910390fd5b505050565b600080823b905060008111915050919050565b600073ffffffffffffffffffffffffffffffffffffffff168273ffffffffffffffffffffffffffffffffffffffff1614156121d9576040517f08c379a00000000000000000000000000000000000000000000000000000000081526004016121d090613303565b60405180910390fd5b6121e281611355565b15612222576040517f08c379a000000000000000000000000000000000000000000000000000000000815260040161221990613203565b60405180910390fd5b61222e60008383611f5f565b6001600360008473ffffffffffffffffffffffffffffffffffffffff1673ffffffffffffffffffffffffffffffffffffffff168152602001908152602001600020600082825461227e91906134b7565b92505081905550816002600083815260200190815260200160002060006101000a81548173ffffffffffffffffffffffffffffffffffffffff021916908373ffffffffffffffffffffffffffffffffffffffff160217905550808273ffffffffffffffffffffffffffffffffffffffff16600073ffffffffffffffffffffffffffffffffffffffff167fddf252ad1be2c89b69c2b068fc378daa952ba7f163c4a11628f55a4df523b3ef60405160405180910390a45050565b82805461234390613682565b90600052602060002090601f01602090048101928261236557600085556123ac565b82601f1061237e57805160ff19168380011785556123ac565b828001600101855582156123ac579182015b828111156123ab578251825591602001919060010190612390565b5b5090506123b991906123bd565b5090565b5b808211156123d65760008160009055506001016123be565b5090565b60006123ed6123e88461342f565b6133fe565b90508281526020810184848401111561240557600080fd5b612410848285613640565b509392505050565b600081359050612427816137fb565b92915050565b60008135905061243c81613812565b92915050565b60008135905061245181613829565b92915050565b60008151905061246681613829565b92915050565b600082601f83011261247d57600080fd5b813561248d8482602086016123da565b91505092915050565b6000813590506124a581613840565b92915050565b6000602082840312156124bd57600080fd5b60006124cb84828501612418565b91505092915050565b600080604083850312156124e757600080fd5b60006124f585828601612418565b925050602061250685828601612418565b9150509250929050565b60008060006060848603121561252557600080fd5b600061253386828701612418565b935050602061254486828701612418565b925050604061255586828701612496565b9150509250925092565b6000806000806080858703121561257557600080fd5b600061258387828801612418565b945050602061259487828801612418565b93505060406125a587828801612496565b925050606085013567ffffffffffffffff8111156125c257600080fd5b6125ce8782880161246c565b91505092959194509250565b600080604083850312156125ed57600080fd5b60006125fb85828601612418565b925050602061260c8582860161242d565b9150509250929050565b6000806040838503121561262957600080fd5b600061263785828601612418565b925050602061264885828601612496565b9150509250929050565b60006020828403121561266457600080fd5b600061267284828501612442565b91505092915050565b60006020828403121561268d57600080fd5b600061269b84828501612457565b91505092915050565b6000602082840312156126b657600080fd5b60006126c484828501612496565b91505092915050565b6126d6816135cc565b82525050565b6126e5816135de565b82525050565b60006126f682613474565b612700818561348a565b935061271081856020860161364f565b612719816137ea565b840191505092915050565b600061272f8261347f565b612739818561349b565b935061274981856020860161364f565b612752816137ea565b840191505092915050565b60006127688261347f565b61277281856134ac565b935061278281856020860161364f565b80840191505092915050565b6000815461279b81613682565b6127a581866134ac565b945060018216600081146127c057600181146127d157612804565b60ff19831686528186019350612804565b6127da8561345f565b60005b838110156127fc578154818901526001820191506020810190506127dd565b838801955050505b50505092915050565b600061281a60328361349b565b91507f4552433732313a207472616e7366657220746f206e6f6e20455243373231526560008301527f63656976657220696d706c656d656e74657200000000000000000000000000006020830152604082019050919050565b6000612880601c8361349b565b91507f4552433732313a20746f6b656e20616c7265616479206d696e746564000000006000830152602082019050919050565b60006128c060248361349b565b91507f4552433732313a207472616e7366657220746f20746865207a65726f2061646460008301527f72657373000000000000000000000000000000000000000000000000000000006020830152604082019050919050565b600061292660198361349b565b91507f4552433732313a20617070726f766520746f2063616c6c6572000000000000006000830152602082019050919050565b60006129666063836134ac565b91507f222c20226465736372697074696f6e223a20224120686967686c79206163636c60008301527f61696d656420636f6c6c656374696f6e206f6620737175617265732e222c202260208301527f696d616765223a2022646174613a696d6167652f7376672b786d6c3b6261736560408301527f36342c00000000000000000000000000000000000000000000000000000000006060830152606382019050919050565b6000612a18602c8361349b565b91507f4552433732313a206f70657261746f7220717565727920666f72206e6f6e657860008301527f697374656e7420746f6b656e00000000000000000000000000000000000000006020830152604082019050919050565b6000612a7e600d836134ac565b91507f3c2f746578743e3c2f7376673e000000000000000000000000000000000000006000830152600d82019050919050565b6000612abe60388361349b565b91507f4552433732313a20617070726f76652063616c6c6572206973206e6f74206f7760008301527f6e6572206e6f7220617070726f76656420666f7220616c6c00000000000000006020830152604082019050919050565b6000612b24602a8361349b565b91507f4552433732313a2062616c616e636520717565727920666f7220746865207a6560008301527f726f2061646472657373000000000000000000000000000000000000000000006020830152604082019050919050565b6000612b8a60298361349b565b91507f4552433732313a206f776e657220717565727920666f72206e6f6e657869737460008301527f656e7420746f6b656e00000000000000000000000000000000000000000000006020830152604082019050919050565b6000612bf0602e8361349b565b91507f45524337323155524953746f726167653a2055524920736574206f66206e6f6e60008301527f6578697374656e7420746f6b656e0000000000000000000000000000000000006020830152604082019050919050565b6000612c566002836134ac565b91507f227d0000000000000000000000000000000000000000000000000000000000006000830152600282019050919050565b6000612c9660208361349b565b91507f4552433732313a206d696e7420746f20746865207a65726f20616464726573736000830152602082019050919050565b6000612cd660318361349b565b91507f45524337323155524953746f726167653a2055524920717565727920666f722060008301527f6e6f6e6578697374656e7420746f6b656e0000000000000000000000000000006020830152604082019050919050565b6000612d3c602c8361349b565b91507f4552433732313a20617070726f76656420717565727920666f72206e6f6e657860008301527f697374656e7420746f6b656e00000000000000000000000000000000000000006020830152604082019050919050565b6000612da260298361349b565b91507f4552433732313a207472616e73666572206f6620746f6b656e2074686174206960008301527f73206e6f74206f776e00000000000000000000000000000000000000000000006020830152604082019050919050565b6000612e08602f8361349b565b91507f4552433732314d657461646174613a2055524920717565727920666f72206e6f60008301527f6e6578697374656e7420746f6b656e00000000000000000000000000000000006020830152604082019050919050565b6000612e6e600a836134ac565b91507f7b226e616d65223a2022000000000000000000000000000000000000000000006000830152600a82019050919050565b6000612eae60218361349b565b91507f4552433732313a20617070726f76616c20746f2063757272656e74206f776e6560008301527f72000000000000000000000000000000000000000000000000000000000000006020830152604082019050919050565b6000612f14601d836134ac565b91507f646174613a6170706c69636174696f6e2f6a736f6e3b6261736536342c0000006000830152601d82019050919050565b6000612f5460318361349b565b91507f4552433732313a207472616e736665722063616c6c6572206973206e6f74206f60008301527f776e6572206e6f7220617070726f7665640000000000000000000000000000006020830152604082019050919050565b612fb681613636565b82525050565b6000612fc8828461275d565b915081905092915050565b6000612fdf828561275d565b9150612feb828461275d565b91508190509392505050565b6000613003828661275d565b915061300f828561275d565b915061301b828461275d565b9150819050949350505050565b6000613034828761278e565b9150613040828661275d565b915061304c828561278e565b9150613058828461275d565b915061306382612a71565b915081905095945050505050565b600061307c82612e61565b9150613088828561275d565b915061309382612959565b915061309f828461275d565b91506130aa82612c49565b91508190509392505050565b60006130c182612f07565b91506130cd828461275d565b915081905092915050565b60006020820190506130ed60008301846126cd565b92915050565b600060808201905061310860008301876126cd565b61311560208301866126cd565b6131226040830185612fad565b818103606083015261313481846126eb565b905095945050505050565b600060408201905061315460008301856126cd565b6131616020830184612fad565b9392505050565b600060208201905061317d60008301846126dc565b92915050565b6000602082019050818103600083015261319d8184612724565b905092915050565b600060608201905081810360008301526131bf8186612724565b90506131ce6020830185612fad565b6131db60408301846126cd565b949350505050565b600060208201905081810360008301526131fc8161280d565b9050919050565b6000602082019050818103600083015261321c81612873565b9050919050565b6000602082019050818103600083015261323c816128b3565b9050919050565b6000602082019050818103600083015261325c81612919565b9050919050565b6000602082019050818103600083015261327c81612a0b565b9050919050565b6000602082019050818103600083015261329c81612ab1565b9050919050565b600060208201905081810360008301526132bc81612b17565b9050919050565b600060208201905081810360008301526132dc81612b7d565b9050919050565b600060208201905081810360008301526132fc81612be3565b9050919050565b6000602082019050818103600083015261331c81612c89565b9050919050565b6000602082019050818103600083015261333c81612cc9565b9050919050565b6000602082019050818103600083015261335c81612d2f565b9050919050565b6000602082019050818103600083015261337c81612d95565b9050919050565b6000602082019050818103600083015261339c81612dfb565b9050919050565b600060208201905081810360008301526133bc81612ea1565b9050919050565b600060208201905081810360008301526133dc81612f47565b9050919050565b60006020820190506133f86000830184612fad565b92915050565b6000604051905081810181811067ffffffffffffffff82111715613425576134246137bb565b5b8060405250919050565b600067ffffffffffffffff82111561344a576134496137bb565b5b601f19601f8301169050602081019050919050565b60008190508160005260206000209050919050565b600081519050919050565b600081519050919050565b600082825260208201905092915050565b600082825260208201905092915050565b600081905092915050565b60006134c282613636565b91506134cd83613636565b9250827fffffffffffffffffffffffffffffffffffffffffffffffffffffffffffffffff038211156135025761350161372e565b5b828201905092915050565b600061351882613636565b915061352383613636565b9250826135335761353261375d565b5b828204905092915050565b600061354982613636565b915061355483613636565b9250817fffffffffffffffffffffffffffffffffffffffffffffffffffffffffffffffff048311821515161561358d5761358c61372e565b5b828202905092915050565b60006135a382613636565b91506135ae83613636565b9250828210156135c1576135c061372e565b5b828203905092915050565b60006135d782613616565b9050919050565b60008115159050919050565b60007fffffffff0000000000000000000000000000000000000000000000000000000082169050919050565b600073ffffffffffffffffffffffffffffffffffffffff82169050919050565b6000819050919050565b82818337600083830152505050565b60005b8381101561366d578082015181840152602081019050613652565b8381111561367c576000848401525b50505050565b6000600282049050600182168061369a57607f821691505b602082108114156136ae576136ad61378c565b5b50919050565b60006136bf82613636565b91507fffffffffffffffffffffffffffffffffffffffffffffffffffffffffffffffff8214156136f2576136f161372e565b5b600182019050919050565b600061370882613636565b915061371383613636565b9250826137235761372261375d565b5b828206905092915050565b7f4e487b7100000000000000000000000000000000000000000000000000000000600052601160045260246000fd5b7f4e487b7100000000000000000000000000000000000000000000000000000000600052601260045260246000fd5b7f4e487b7100000000000000000000000000000000000000000000000000000000600052602260045260246000fd5b7f4e487b7100000000000000000000000000000000000000000000000000000000600052604160045260246000fd5b6000601f19601f8301169050919050565b613804816135cc565b811461380f57600080fd5b50565b61381b816135de565b811461382657600080fd5b50565b613832816135ea565b811461383d57600080fd5b50565b61384981613636565b811461385457600080fd5b5056fe416e204e465420772f20494420257320686173206265656e206d696e74656420746f2025734142434445464748494a4b4c4d4e4f505152535455565758595a6162636465666768696a6b6c6d6e6f707172737475767778797a303132333435363738392b2fa264697066735822122099063e325efce4062b15cb3e065f8c7519729c31c6854667e7dcbc46ed324b6c64736f6c634300080000333c73766720786d6c6e733d27687474703a2f2f7777772e77332e6f72672f323030302f73766727207072657365727665417370656374526174696f3d27784d696e594d696e206d656574272076696577426f783d273020302033353020333530273e3c7374796c653e2e62617365207b2066696c6c3a2077686974653b20666f6e742d66616d696c793a2073657269663b20666f6e742d73697a653a20323470783b207d3c2f7374796c653e3c726563742077696474683d273130302527206865696768743d2731303025272066696c6c3d27272f3e3c7465787420783d273530252720793d273530252720636c6173733d27626173652720646f6d696e616e742d626173656c696e653d276d6964646c652720746578742d616e63686f723d276d6964646c65273e",
  "linkReferences": {},
  "deployedLinkReferences": {}
}