{
  "_format": "hh-sol-artifact-1",
  "contractName": "MyEpicNFT",
  "sourceName": "contracts/MyEpicNFT.sol",
  "abi": [
    {
      "inputs": [],
      "stateMutability": "nonpayable",
      "type": "constructor"
    },
    {
      "anonymous": false,
      "inputs": [
        {
          "indexed": true,
          "internalType": "address",
          "name": "owner",
          "type": "address"
        },
        {
          "indexed": true,
          "internalType": "address",
          "name": "approved",
          "type": "address"
        },
        {
          "indexed": true,
          "internalType": "uint256",
          "name": "tokenId",
          "type": "uint256"
        }
      ],
      "name": "Approval",
      "type": "event"
    },
    {
      "anonymous": false,
      "inputs": [
        {
          "indexed": true,
          "internalType": "address",
          "name": "owner",
          "type": "address"
        },
        {
          "indexed": true,
          "internalType": "address",
          "name": "operator",
          "type": "address"
        },
        {
          "indexed": false,
          "internalType": "bool",
          "name": "approved",
          "type": "bool"
        }
      ],
      "name": "ApprovalForAll",
      "type": "event"
    },
    {
      "anonymous": false,
      "inputs": [
        {
          "indexed": true,
          "internalType": "address",
          "name": "from",
          "type": "address"
        },
        {
          "indexed": true,
          "internalType": "address",
          "name": "to",
          "type": "address"
        },
        {
          "indexed": true,
          "internalType": "uint256",
          "name": "tokenId",
          "type": "uint256"
        }
      ],
      "name": "Transfer",
      "type": "event"
    },
    {
      "inputs": [
        {
          "internalType": "address",
          "name": "to",
          "type": "address"
        },
        {
          "internalType": "uint256",
          "name": "tokenId",
          "type": "uint256"
        }
      ],
      "name": "approve",
      "outputs": [],
      "stateMutability": "nonpayable",
      "type": "function"
    },
    {
      "inputs": [
        {
          "internalType": "address",
          "name": "owner",
          "type": "address"
        }
      ],
      "name": "balanceOf",
      "outputs": [
        {
          "internalType": "uint256",
          "name": "",
          "type": "uint256"
        }
      ],
      "stateMutability": "view",
      "type": "function"
    },
    {
      "inputs": [
        {
          "internalType": "uint256",
          "name": "tokenId",
          "type": "uint256"
        }
      ],
      "name": "getApproved",
      "outputs": [
        {
          "internalType": "address",
          "name": "",
          "type": "address"
        }
      ],
      "stateMutability": "view",
      "type": "function"
    },
    {
      "inputs": [
        {
          "internalType": "address",
          "name": "owner",
          "type": "address"
        },
        {
          "internalType": "address",
          "name": "operator",
          "type": "address"
        }
      ],
      "name": "isApprovedForAll",
      "outputs": [
        {
          "internalType": "bool",
          "name": "",
          "type": "bool"
        }
      ],
      "stateMutability": "view",
      "type": "function"
    },
    {
      "inputs": [],
      "name": "makeAnEpicNFT",
      "outputs": [],
      "stateMutability": "nonpayable",
      "type": "function"
    },
    {
      "inputs": [],
      "name": "name",
      "outputs": [
        {
          "internalType": "string",
          "name": "",
          "type": "string"
        }
      ],
      "stateMutability": "view",
      "type": "function"
    },
    {
      "inputs": [
        {
          "internalType": "uint256",
          "name": "tokenId",
          "type": "uint256"
        }
      ],
      "name": "ownerOf",
      "outputs": [
        {
          "internalType": "address",
          "name": "",
          "type": "address"
        }
      ],
      "stateMutability": "view",
      "type": "function"
    },
    {
      "inputs": [
        {
          "internalType": "uint256",
          "name": "tokenId",
          "type": "uint256"
        }
      ],
      "name": "pickRandomFirstWord",
      "outputs": [
        {
          "internalType": "string",
          "name": "",
          "type": "string"
        }
      ],
      "stateMutability": "view",
      "type": "function"
    },
    {
      "inputs": [
        {
          "internalType": "uint256",
          "name": "tokenId",
          "type": "uint256"
        }
      ],
      "name": "pickRandomSecondWord",
      "outputs": [
        {
          "internalType": "string",
          "name": "",
          "type": "string"
        }
      ],
      "stateMutability": "view",
      "type": "function"
    },
    {
      "inputs": [
        {
          "internalType": "uint256",
          "name": "tokenId",
          "type": "uint256"
        }
      ],
      "name": "pickRandomThirdWord",
      "outputs": [
        {
          "internalType": "string",
          "name": "",
          "type": "string"
        }
      ],
      "stateMutability": "view",
      "type": "function"
    },
    {
      "inputs": [
        {
          "internalType": "address",
          "name": "from",
          "type": "address"
        },
        {
          "internalType": "address",
          "name": "to",
          "type": "address"
        },
        {
          "internalType": "uint256",
          "name": "tokenId",
          "type": "uint256"
        }
      ],
      "name": "safeTransferFrom",
      "outputs": [],
      "stateMutability": "nonpayable",
      "type": "function"
    },
    {
      "inputs": [
        {
          "internalType": "address",
          "name": "from",
          "type": "address"
        },
        {
          "internalType": "address",
          "name": "to",
          "type": "address"
        },
        {
          "internalType": "uint256",
          "name": "tokenId",
          "type": "uint256"
        },
        {
          "internalType": "bytes",
          "name": "_data",
          "type": "bytes"
        }
      ],
      "name": "safeTransferFrom",
      "outputs": [],
      "stateMutability": "nonpayable",
      "type": "function"
    },
    {
      "inputs": [
        {
          "internalType": "address",
          "name": "operator",
          "type": "address"
        },
        {
          "internalType": "bool",
          "name": "approved",
          "type": "bool"
        }
      ],
      "name": "setApprovalForAll",
      "outputs": [],
      "stateMutability": "nonpayable",
      "type": "function"
    },
    {
      "inputs": [
        {
          "internalType": "bytes4",
          "name": "interfaceId",
          "type": "bytes4"
        }
      ],
      "name": "supportsInterface",
      "outputs": [
        {
          "internalType": "bool",
          "name": "",
          "type": "bool"
        }
      ],
      "stateMutability": "view",
      "type": "function"
    },
    {
      "inputs": [],
      "name": "symbol",
      "outputs": [
        {
          "internalType": "string",
          "name": "",
          "type": "string"
        }
      ],
      "stateMutability": "view",
      "type": "function"
    },
    {
      "inputs": [
        {
          "internalType": "uint256",
          "name": "tokenId",
          "type": "uint256"
        }
      ],
      "name": "tokenURI",
      "outputs": [
        {
          "internalType": "string",
          "name": "",
          "type": "string"
        }
      ],
      "stateMutability": "view",
      "type": "function"
    },
    {
      "inputs": [
        {
          "internalType": "address",
          "name": "from",
          "type": "address"
        },
        {
          "internalType": "address",
          "name": "to",
          "type": "address"
        },
        {
          "internalType": "uint256",
          "name": "tokenId",
          "type": "uint256"
        }
      ],
      "name": "transferFrom",
      "outputs": [],
      "stateMutability": "nonpayable",
      "type": "function"
    }
  ],
  "bytecode": "0x608060405260405180610160016040528061012f81526020016200404061012f913960089080519060200190620000389291906200067e565b506040518060c001604052806040518060400160405280600981526020017f6f626e6f78696f7573000000000000000000000000000000000000000000000081525081526020016040518060400160405280600781526020017f616261736865640000000000000000000000000000000000000000000000000081525081526020016040518060400160405280600d81526020017f666c61626265726761737465640000000000000000000000000000000000000081525081526020016040518060400160405280600481526020017f626f79730000000000000000000000000000000000000000000000000000000081525081526020016040518060400160405280600681526020017f66696173636f000000000000000000000000000000000000000000000000000081525081526020016040518060400160405280600381526020017f73697000000000000000000000000000000000000000000000000000000000008152508152506009906006620001b69291906200070f565b506040518060c001604052806040518060400160405280600781526020017f62756d706b696e0000000000000000000000000000000000000000000000000081525081526020016040518060400160405280600981526020017f6361636f70686f6e79000000000000000000000000000000000000000000000081525081526020016040518060400160405280600881526020017f63616c616d69747900000000000000000000000000000000000000000000000081525081526020016040518060400160405280600881526020017f66616e64616e676f00000000000000000000000000000000000000000000000081525081526020016040518060400160405280600c81526020017f676c6f626574726f74746572000000000000000000000000000000000000000081525081526020016040518060400160405280600781526020017f686f746865616400000000000000000000000000000000000000000000000000815250815250600a906006620003349291906200070f565b506040518060c001604052806040518060400160405280600681526020017f656172776967000000000000000000000000000000000000000000000000000081525081526020016040518060400160405280600d81526020017f6a69626265722d6a61626265720000000000000000000000000000000000000081525081526020016040518060400160405280600681526020017f61706f676565000000000000000000000000000000000000000000000000000081525081526020016040518060400160405280600a81526020017f6368696d65726963616c0000000000000000000000000000000000000000000081525081526020016040518060400160405280600981526020017f666f70646f6f646c65000000000000000000000000000000000000000000000081525081526020016040518060400160405280600681526020017f656c697869720000000000000000000000000000000000000000000000000000815250815250600b906006620004b29291906200070f565b50348015620004c057600080fd5b506040518060400160405280600981526020017f5371756172654e465400000000000000000000000000000000000000000000008152506040518060400160405280600681526020017f53515541524500000000000000000000000000000000000000000000000000008152508160009080519060200190620005459291906200067e565b5080600190805190602001906200055e9291906200067e565b505050620005ac6040518060400160405280601d81526020017f54686973206973206d79204e465420636f6e74726163742e2057686f61000000815250620005b260201b620010a31760201c565b62000930565b6200065281604051602401620005c9919062000844565b6040516020818303038152906040527f41304fac000000000000000000000000000000000000000000000000000000007bffffffffffffffffffffffffffffffffffffffffffffffffffffffff19166020820180517bffffffffffffffffffffffffffffffffffffffffffffffffffffffff83818316178352505050506200065560201b60201c565b50565b60008151905060006a636f6e736f6c652e6c6f679050602083016000808483855afa5050505050565b8280546200068c90620008ba565b90600052602060002090601f016020900481019282620006b05760008555620006fc565b82601f10620006cb57805160ff1916838001178555620006fc565b82800160010185558215620006fc579182015b82811115620006fb578251825591602001919060010190620006de565b5b5090506200070b919062000776565b5090565b82805482825590600052602060002090810192821562000763579160200282015b8281111562000762578251829080519060200190620007519291906200067e565b509160200191906001019062000730565b5b50905062000772919062000795565b5090565b5b808211156200079157600081600090555060010162000777565b5090565b5b80821115620007b95760008181620007af9190620007bd565b5060010162000796565b5090565b508054620007cb90620008ba565b6000825580601f10620007df575062000800565b601f016020900490600052602060002090810190620007ff919062000776565b5b50565b6000620008108262000868565b6200081c818562000873565b93506200082e81856020860162000884565b62000839816200091f565b840191505092915050565b6000602082019050818103600083015262000860818462000803565b905092915050565b600081519050919050565b600082825260208201905092915050565b60005b83811015620008a457808201518184015260208101905062000887565b83811115620008b4576000848401525b50505050565b60006002820490506001821680620008d357607f821691505b60208210811415620008ea57620008e9620008f0565b5b50919050565b7f4e487b7100000000000000000000000000000000000000000000000000000000600052602260045260246000fd5b6000601f19601f8301169050919050565b61370080620009406000396000f3fe608060405234801561001057600080fd5b506004361061010b5760003560e01c806370a08231116100a2578063b88d4fde11610071578063b88d4fde146102dc578063c575757a146102f8578063c87b56dd14610328578063de9d132f14610358578063e985e9c5146103625761010b565b806370a082311461024257806395d89b4114610272578063a22cb46514610290578063b187301f146102ac5761010b565b806323b872dd116100de57806323b872dd146101aa5780632de38d68146101c657806342842e0e146101f65780636352211e146102125761010b565b806301ffc9a71461011057806306fdde0314610140578063081812fc1461015e578063095ea7b31461018e575b600080fd5b61012a600480360381019061012591906124a3565b610392565b6040516101379190612f76565b60405180910390f35b610148610474565b6040516101559190612f91565b60405180910390f35b610178600480360381019061017391906124f5565b610506565b6040516101859190612f0f565b60405180910390f35b6101a860048036038101906101a39190612467565b61058b565b005b6101c460048036038101906101bf9190612361565b6106a3565b005b6101e060048036038101906101db91906124f5565b610703565b6040516101ed9190612f91565b60405180910390f35b610210600480360381019061020b9190612361565b61082b565b005b61022c600480360381019061022791906124f5565b61084b565b6040516102399190612f0f565b60405180910390f35b61025c600480360381019061025791906122fc565b6108fd565b60405161026991906131f1565b60405180910390f35b61027a6109b5565b6040516102879190612f91565b60405180910390f35b6102aa60048036038101906102a5919061242b565b610a47565b005b6102c660048036038101906102c191906124f5565b610a5d565b6040516102d39190612f91565b60405180910390f35b6102f660048036038101906102f191906123b0565b610b85565b005b610312600480360381019061030d91906124f5565b610be7565b60405161031f9190612f91565b60405180910390f35b610342600480360381019061033d91906124f5565b610d0f565b60405161034f9190612f91565b60405180910390f35b610360610e61565b005b61037c60048036038101906103779190612325565b61100f565b6040516103899190612f76565b60405180910390f35b60007f80ac58cd000000000000000000000000000000000000000000000000000000007bffffffffffffffffffffffffffffffffffffffffffffffffffffffff1916827bffffffffffffffffffffffffffffffffffffffffffffffffffffffff1916148061045d57507f5b5e139f000000000000000000000000000000000000000000000000000000007bffffffffffffffffffffffffffffffffffffffffffffffffffffffff1916827bffffffffffffffffffffffffffffffffffffffffffffffffffffffff1916145b8061046d575061046c8261113c565b5b9050919050565b60606000805461048390613490565b80601f01602080910402602001604051908101604052809291908181526020018280546104af90613490565b80156104fc5780601f106104d1576101008083540402835291602001916104fc565b820191906000526020600020905b8154815290600101906020018083116104df57829003601f168201915b5050505050905090565b6000610511826111a6565b610550576040517f08c379a000000000000000000000000000000000000000000000000000000000815260040161054790613151565b60405180910390fd5b6004600083815260200190815260200160002060009054906101000a900473ffffffffffffffffffffffffffffffffffffffff169050919050565b60006105968261084b565b90508073ffffffffffffffffffffffffffffffffffffffff168373ffffffffffffffffffffffffffffffffffffffff161415610607576040517f08c379a00000000000000000000000000000000000000000000000000000000081526004016105fe906131b1565b60405180910390fd5b8073ffffffffffffffffffffffffffffffffffffffff16610626611212565b73ffffffffffffffffffffffffffffffffffffffff16148061065557506106548161064f611212565b61100f565b5b610694576040517f08c379a000000000000000000000000000000000000000000000000000000000815260040161068b90613091565b60405180910390fd5b61069e838361121a565b505050565b6106b46106ae611212565b826112d3565b6106f3576040517f08c379a00000000000000000000000000000000000000000000000000000000081526004016106ea906131d1565b60405180910390fd5b6106fe8383836113b1565b505050565b606060006107416107134261160d565b61071c8561160d565b60405160200161072d929190612e24565b6040516020818303038152906040526117ba565b905060098054905081610754919061350b565b905060098181548110610790577f4e487b7100000000000000000000000000000000000000000000000000000000600052603260045260246000fd5b9060005260206000200180546107a590613490565b80601f01602080910402602001604051908101604052809291908181526020018280546107d190613490565b801561081e5780601f106107f35761010080835404028352916020019161081e565b820191906000526020600020905b81548152906001019060200180831161080157829003601f168201915b5050505050915050919050565b61084683838360405180602001604052806000815250610b85565b505050565b6000806002600084815260200190815260200160002060009054906101000a900473ffffffffffffffffffffffffffffffffffffffff169050600073ffffffffffffffffffffffffffffffffffffffff168173ffffffffffffffffffffffffffffffffffffffff1614156108f4576040517f08c379a00000000000000000000000000000000000000000000000000000000081526004016108eb906130d1565b60405180910390fd5b80915050919050565b60008073ffffffffffffffffffffffffffffffffffffffff168273ffffffffffffffffffffffffffffffffffffffff16141561096e576040517f08c379a0000000000000000000000000000000000000000000000000000000008152600401610965906130b1565b60405180910390fd5b600360008373ffffffffffffffffffffffffffffffffffffffff1673ffffffffffffffffffffffffffffffffffffffff168152602001908152602001600020549050919050565b6060600180546109c490613490565b80601f01602080910402602001604051908101604052809291908181526020018280546109f090613490565b8015610a3d5780601f10610a1257610100808354040283529160200191610a3d565b820191906000526020600020905b815481529060010190602001808311610a2057829003601f168201915b5050505050905090565b610a59610a52611212565b83836117ed565b5050565b60606000610a9b610a6d4261160d565b610a768561160d565b604051602001610a87929190612e24565b6040516020818303038152906040526117ba565b9050600a8054905081610aae919061350b565b9050600a8181548110610aea577f4e487b7100000000000000000000000000000000000000000000000000000000600052603260045260246000fd5b906000526020600020018054610aff90613490565b80601f0160208091040260200160405190810160405280929190818152602001828054610b2b90613490565b8015610b785780601f10610b4d57610100808354040283529160200191610b78565b820191906000526020600020905b815481529060010190602001808311610b5b57829003601f168201915b5050505050915050919050565b610b96610b90611212565b836112d3565b610bd5576040517f08c379a0000000000000000000000000000000000000000000000000000000008152600401610bcc906131d1565b60405180910390fd5b610be18484848461195a565b50505050565b60606000610c25610bf74261160d565b610c008561160d565b604051602001610c11929190612e24565b6040516020818303038152906040526117ba565b9050600b8054905081610c38919061350b565b9050600b8181548110610c74577f4e487b7100000000000000000000000000000000000000000000000000000000600052603260045260246000fd5b906000526020600020018054610c8990613490565b80601f0160208091040260200160405190810160405280929190818152602001828054610cb590613490565b8015610d025780601f10610cd757610100808354040283529160200191610d02565b820191906000526020600020905b815481529060010190602001808311610ce557829003601f168201915b5050505050915050919050565b6060610d1a826111a6565b610d59576040517f08c379a0000000000000000000000000000000000000000000000000000000008152600401610d5090613131565b60405180910390fd5b6000600660008481526020019081526020016000208054610d7990613490565b80601f0160208091040260200160405190810160405280929190818152602001828054610da590613490565b8015610df25780601f10610dc757610100808354040283529160200191610df2565b820191906000526020600020905b815481529060010190602001808311610dd557829003601f168201915b505050505090506000610e036119b6565b9050600081511415610e19578192505050610e5c565b600082511115610e4e578082604051602001610e36929190612e24565b60405160208183030381529060405292505050610e5c565b610e57846119cd565b925050505b919050565b6000610e6d6007611a74565b90506000610e7a82610703565b90506000610e8783610a5d565b90506000610e9484610be7565b90506000838383604051602001610ead93929190612e48565b60405160208183030381529060405290506000600882604051602001610ed4929190612e79565b60405160208183030381529060405290506000610f1983610ef484611a82565b604051602001610f05929190612ea8565b604051602081830303815290604052611a82565b9050600081604051602001610f2e9190612eed565b6040516020818303038152906040529050610f7d6040518060400160405280601581526020017f0a2d2d2d2d2d2d2d2d2d2d2d2d2d2d2d2d2d2d2d2d00000000000000000000008152506110a3565b610f86816110a3565b610fc46040518060400160405280601581526020017f2d2d2d2d2d2d2d2d2d2d2d2d2d2d2d2d2d2d2d2d0a00000000000000000000008152506110a3565b610fce3389611c40565b610fd88882611c5e565b610fe26007611cd2565b611005604051806060016040528060258152602001613666602591398933611ce8565b5050505050505050565b6000600560008473ffffffffffffffffffffffffffffffffffffffff1673ffffffffffffffffffffffffffffffffffffffff16815260200190815260200160002060008373ffffffffffffffffffffffffffffffffffffffff1673ffffffffffffffffffffffffffffffffffffffff16815260200190815260200160002060009054906101000a900460ff16905092915050565b611139816040516024016110b79190612f91565b6040516020818303038152906040527f41304fac000000000000000000000000000000000000000000000000000000007bffffffffffffffffffffffffffffffffffffffffffffffffffffffff19166020820180517bffffffffffffffffffffffffffffffffffffffffffffffffffffffff8381831617835250505050611d87565b50565b60007f01ffc9a7000000000000000000000000000000000000000000000000000000007bffffffffffffffffffffffffffffffffffffffffffffffffffffffff1916827bffffffffffffffffffffffffffffffffffffffffffffffffffffffff1916149050919050565b60008073ffffffffffffffffffffffffffffffffffffffff166002600084815260200190815260200160002060009054906101000a900473ffffffffffffffffffffffffffffffffffffffff1673ffffffffffffffffffffffffffffffffffffffff1614159050919050565b600033905090565b816004600083815260200190815260200160002060006101000a81548173ffffffffffffffffffffffffffffffffffffffff021916908373ffffffffffffffffffffffffffffffffffffffff160217905550808273ffffffffffffffffffffffffffffffffffffffff1661128d8361084b565b73ffffffffffffffffffffffffffffffffffffffff167f8c5be1e5ebec7d5bd14f71427d1e84f3dd0314c0f7b2291e5b200ac8c7c3b92560405160405180910390a45050565b60006112de826111a6565b61131d576040517f08c379a000000000000000000000000000000000000000000000000000000000815260040161131490613071565b60405180910390fd5b60006113288361084b565b90508073ffffffffffffffffffffffffffffffffffffffff168473ffffffffffffffffffffffffffffffffffffffff16148061139757508373ffffffffffffffffffffffffffffffffffffffff1661137f84610506565b73ffffffffffffffffffffffffffffffffffffffff16145b806113a857506113a7818561100f565b5b91505092915050565b8273ffffffffffffffffffffffffffffffffffffffff166113d18261084b565b73ffffffffffffffffffffffffffffffffffffffff1614611427576040517f08c379a000000000000000000000000000000000000000000000000000000000815260040161141e90613171565b60405180910390fd5b600073ffffffffffffffffffffffffffffffffffffffff168273ffffffffffffffffffffffffffffffffffffffff161415611497576040517f08c379a000000000000000000000000000000000000000000000000000000000815260040161148e90613031565b60405180910390fd5b6114a2838383611db0565b6114ad60008261121a565b6001600360008573ffffffffffffffffffffffffffffffffffffffff1673ffffffffffffffffffffffffffffffffffffffff16815260200190815260200160002060008282546114fd91906133a6565b925050819055506001600360008473ffffffffffffffffffffffffffffffffffffffff1673ffffffffffffffffffffffffffffffffffffffff168152602001908152602001600020600082825461155491906132c5565b92505081905550816002600083815260200190815260200160002060006101000a81548173ffffffffffffffffffffffffffffffffffffffff021916908373ffffffffffffffffffffffffffffffffffffffff160217905550808273ffffffffffffffffffffffffffffffffffffffff168473ffffffffffffffffffffffffffffffffffffffff167fddf252ad1be2c89b69c2b068fc378daa952ba7f163c4a11628f55a4df523b3ef60405160405180910390a4505050565b60606000821415611655576040518060400160405280600181526020017f300000000000000000000000000000000000000000000000000000000000000081525090506117b5565b600082905060005b60008214611687578080611670906134c2565b915050600a82611680919061331b565b915061165d565b60008167ffffffffffffffff8111156116c9577f4e487b7100000000000000000000000000000000000000000000000000000000600052604160045260246000fd5b6040519080825280601f01601f1916602001820160405280156116fb5781602001600182028036833780820191505090505b5090505b600085146117ae5760018261171491906133a6565b9150600a85611723919061350b565b603061172f91906132c5565b60f81b81838151811061176b577f4e487b7100000000000000000000000000000000000000000000000000000000600052603260045260246000fd5b60200101907effffffffffffffffffffffffffffffffffffffffffffffffffffffffffffff1916908160001a905350600a856117a7919061331b565b94506116ff565b8093505050505b919050565b6000816040516020016117cd9190612e0d565b6040516020818303038152906040528051906020012060001c9050919050565b8173ffffffffffffffffffffffffffffffffffffffff168373ffffffffffffffffffffffffffffffffffffffff16141561185c576040517f08c379a000000000000000000000000000000000000000000000000000000000815260040161185390613051565b60405180910390fd5b80600560008573ffffffffffffffffffffffffffffffffffffffff1673ffffffffffffffffffffffffffffffffffffffff16815260200190815260200160002060008473ffffffffffffffffffffffffffffffffffffffff1673ffffffffffffffffffffffffffffffffffffffff16815260200190815260200160002060006101000a81548160ff0219169083151502179055508173ffffffffffffffffffffffffffffffffffffffff168373ffffffffffffffffffffffffffffffffffffffff167f17307eab39ab6107e8899845ad3d59bd9653f200f220920489ca2b5937696c318360405161194d9190612f76565b60405180910390a3505050565b6119658484846113b1565b61197184848484611db5565b6119b0576040517f08c379a00000000000000000000000000000000000000000000000000000000081526004016119a790612ff1565b60405180910390fd5b50505050565b606060405180602001604052806000815250905090565b60606119d8826111a6565b611a17576040517f08c379a0000000000000000000000000000000000000000000000000000000008152600401611a0e90613191565b60405180910390fd5b6000611a216119b6565b90506000815111611a415760405180602001604052806000815250611a6c565b80611a4b8461160d565b604051602001611a5c929190612e24565b6040516020818303038152906040525b915050919050565b600081600001549050919050565b60606000825190506000811415611aab5760405180602001604052806000815250915050611c3b565b60006003600283611abc91906132c5565b611ac6919061331b565b6004611ad2919061334c565b90506000602082611ae391906132c5565b67ffffffffffffffff811115611b22577f4e487b7100000000000000000000000000000000000000000000000000000000600052604160045260246000fd5b6040519080825280601f01601f191660200182016040528015611b545781602001600182028036833780820191505090505b509050600060405180606001604052806040815260200161368b604091399050600181016020830160005b86811015611bf85760038101905062ffffff818a015116603f8160121c168401518060081b905060ff603f83600c1c1686015116810190508060081b905060ff603f8360061c1686015116810190508060081b905060ff603f831686015116810190508060e01b90508084526004840193505050611b7f565b506003860660018114611c125760028114611c2257611c2d565b613d3d60f01b6002830352611c2d565b603d60f81b60018303525b508484525050819450505050505b919050565b611c5a828260405180602001604052806000815250611f4c565b5050565b611c67826111a6565b611ca6576040517f08c379a0000000000000000000000000000000000000000000000000000000008152600401611c9d906130f1565b60405180910390fd5b80600660008481526020019081526020016000209080519060200190611ccd929190612188565b505050565b6001816000016000828254019250508190555050565b611d82838383604051602401611d0093929190612fb3565b6040516020818303038152906040527fe3849f79000000000000000000000000000000000000000000000000000000007bffffffffffffffffffffffffffffffffffffffffffffffffffffffff19166020820180517bffffffffffffffffffffffffffffffffffffffffffffffffffffffff8381831617835250505050611d87565b505050565b60008151905060006a636f6e736f6c652e6c6f679050602083016000808483855afa5050505050565b505050565b6000611dd68473ffffffffffffffffffffffffffffffffffffffff16611fa7565b15611f3f578373ffffffffffffffffffffffffffffffffffffffff1663150b7a02611dff611212565b8786866040518563ffffffff1660e01b8152600401611e219493929190612f2a565b602060405180830381600087803b158015611e3b57600080fd5b505af1925050508015611e6c57506040513d601f19601f82011682018060405250810190611e6991906124cc565b60015b611eef573d8060008114611e9c576040519150601f19603f3d011682016040523d82523d6000602084013e611ea1565b606091505b50600081511415611ee7576040517f08c379a0000000000000000000000000000000000000000000000000000000008152600401611ede90612ff1565b60405180910390fd5b805181602001fd5b63150b7a0260e01b7bffffffffffffffffffffffffffffffffffffffffffffffffffffffff1916817bffffffffffffffffffffffffffffffffffffffffffffffffffffffff191614915050611f44565b600190505b949350505050565b611f568383611fba565b611f636000848484611db5565b611fa2576040517f08c379a0000000000000000000000000000000000000000000000000000000008152600401611f9990612ff1565b60405180910390fd5b505050565b600080823b905060008111915050919050565b600073ffffffffffffffffffffffffffffffffffffffff168273ffffffffffffffffffffffffffffffffffffffff16141561202a576040517f08c379a000000000000000000000000000000000000000000000000000000000815260040161202190613111565b60405180910390fd5b612033816111a6565b15612073576040517f08c379a000000000000000000000000000000000000000000000000000000000815260040161206a90613011565b60405180910390fd5b61207f60008383611db0565b6001600360008473ffffffffffffffffffffffffffffffffffffffff1673ffffffffffffffffffffffffffffffffffffffff16815260200190815260200160002060008282546120cf91906132c5565b92505081905550816002600083815260200190815260200160002060006101000a81548173ffffffffffffffffffffffffffffffffffffffff021916908373ffffffffffffffffffffffffffffffffffffffff160217905550808273ffffffffffffffffffffffffffffffffffffffff16600073ffffffffffffffffffffffffffffffffffffffff167fddf252ad1be2c89b69c2b068fc378daa952ba7f163c4a11628f55a4df523b3ef60405160405180910390a45050565b82805461219490613490565b90600052602060002090601f0160209004810192826121b657600085556121fd565b82601f106121cf57805160ff19168380011785556121fd565b828001600101855582156121fd579182015b828111156121fc5782518255916020019190600101906121e1565b5b50905061220a919061220e565b5090565b5b8082111561222757600081600090555060010161220f565b5090565b600061223e6122398461323d565b61320c565b90508281526020810184848401111561225657600080fd5b61226184828561344e565b509392505050565b60008135905061227881613609565b92915050565b60008135905061228d81613620565b92915050565b6000813590506122a281613637565b92915050565b6000815190506122b781613637565b92915050565b600082601f8301126122ce57600080fd5b81356122de84826020860161222b565b91505092915050565b6000813590506122f68161364e565b92915050565b60006020828403121561230e57600080fd5b600061231c84828501612269565b91505092915050565b6000806040838503121561233857600080fd5b600061234685828601612269565b925050602061235785828601612269565b9150509250929050565b60008060006060848603121561237657600080fd5b600061238486828701612269565b935050602061239586828701612269565b92505060406123a6868287016122e7565b9150509250925092565b600080600080608085870312156123c657600080fd5b60006123d487828801612269565b94505060206123e587828801612269565b93505060406123f6878288016122e7565b925050606085013567ffffffffffffffff81111561241357600080fd5b61241f878288016122bd565b91505092959194509250565b6000806040838503121561243e57600080fd5b600061244c85828601612269565b925050602061245d8582860161227e565b9150509250929050565b6000806040838503121561247a57600080fd5b600061248885828601612269565b9250506020612499858286016122e7565b9150509250929050565b6000602082840312156124b557600080fd5b60006124c384828501612293565b91505092915050565b6000602082840312156124de57600080fd5b60006124ec848285016122a8565b91505092915050565b60006020828403121561250757600080fd5b6000612515848285016122e7565b91505092915050565b612527816133da565b82525050565b612536816133ec565b82525050565b600061254782613282565b6125518185613298565b935061256181856020860161345d565b61256a816135f8565b840191505092915050565b60006125808261328d565b61258a81856132a9565b935061259a81856020860161345d565b6125a3816135f8565b840191505092915050565b60006125b98261328d565b6125c381856132ba565b93506125d381856020860161345d565b80840191505092915050565b600081546125ec81613490565b6125f681866132ba565b94506001821660008114612611576001811461262257612655565b60ff19831686528186019350612655565b61262b8561326d565b60005b8381101561264d5781548189015260018201915060208101905061262e565b838801955050505b50505092915050565b600061266b6032836132a9565b91507f4552433732313a207472616e7366657220746f206e6f6e20455243373231526560008301527f63656976657220696d706c656d656e74657200000000000000000000000000006020830152604082019050919050565b60006126d1601c836132a9565b91507f4552433732313a20746f6b656e20616c7265616479206d696e746564000000006000830152602082019050919050565b60006127116024836132a9565b91507f4552433732313a207472616e7366657220746f20746865207a65726f2061646460008301527f72657373000000000000000000000000000000000000000000000000000000006020830152604082019050919050565b60006127776019836132a9565b91507f4552433732313a20617070726f766520746f2063616c6c6572000000000000006000830152602082019050919050565b60006127b76063836132ba565b91507f222c20226465736372697074696f6e223a20224120686967686c79206163636c60008301527f61696d656420636f6c6c656374696f6e206f6620737175617265732e222c202260208301527f696d616765223a2022646174613a696d6167652f7376672b786d6c3b6261736560408301527f36342c00000000000000000000000000000000000000000000000000000000006060830152606382019050919050565b6000612869602c836132a9565b91507f4552433732313a206f70657261746f7220717565727920666f72206e6f6e657860008301527f697374656e7420746f6b656e00000000000000000000000000000000000000006020830152604082019050919050565b60006128cf600d836132ba565b91507f3c2f746578743e3c2f7376673e000000000000000000000000000000000000006000830152600d82019050919050565b600061290f6038836132a9565b91507f4552433732313a20617070726f76652063616c6c6572206973206e6f74206f7760008301527f6e6572206e6f7220617070726f76656420666f7220616c6c00000000000000006020830152604082019050919050565b6000612975602a836132a9565b91507f4552433732313a2062616c616e636520717565727920666f7220746865207a6560008301527f726f2061646472657373000000000000000000000000000000000000000000006020830152604082019050919050565b60006129db6029836132a9565b91507f4552433732313a206f776e657220717565727920666f72206e6f6e657869737460008301527f656e7420746f6b656e00000000000000000000000000000000000000000000006020830152604082019050919050565b6000612a41602e836132a9565b91507f45524337323155524953746f726167653a2055524920736574206f66206e6f6e60008301527f6578697374656e7420746f6b656e0000000000000000000000000000000000006020830152604082019050919050565b6000612aa76002836132ba565b91507f227d0000000000000000000000000000000000000000000000000000000000006000830152600282019050919050565b6000612ae76020836132a9565b91507f4552433732313a206d696e7420746f20746865207a65726f20616464726573736000830152602082019050919050565b6000612b276031836132a9565b91507f45524337323155524953746f726167653a2055524920717565727920666f722060008301527f6e6f6e6578697374656e7420746f6b656e0000000000000000000000000000006020830152604082019050919050565b6000612b8d602c836132a9565b91507f4552433732313a20617070726f76656420717565727920666f72206e6f6e657860008301527f697374656e7420746f6b656e00000000000000000000000000000000000000006020830152604082019050919050565b6000612bf36029836132a9565b91507f4552433732313a207472616e73666572206f6620746f6b656e2074686174206960008301527f73206e6f74206f776e00000000000000000000000000000000000000000000006020830152604082019050919050565b6000612c59602f836132a9565b91507f4552433732314d657461646174613a2055524920717565727920666f72206e6f60008301527f6e6578697374656e7420746f6b656e00000000000000000000000000000000006020830152604082019050919050565b6000612cbf600a836132ba565b91507f7b226e616d65223a2022000000000000000000000000000000000000000000006000830152600a82019050919050565b6000612cff6021836132a9565b91507f4552433732313a20617070726f76616c20746f2063757272656e74206f776e6560008301527f72000000000000000000000000000000000000000000000000000000000000006020830152604082019050919050565b6000612d65601d836132ba565b91507f646174613a6170706c69636174696f6e2f6a736f6e3b6261736536342c0000006000830152601d82019050919050565b6000612da56031836132a9565b91507f4552433732313a207472616e736665722063616c6c6572206973206e6f74206f60008301527f776e6572206e6f7220617070726f7665640000000000000000000000000000006020830152604082019050919050565b612e0781613444565b82525050565b6000612e1982846125ae565b915081905092915050565b6000612e3082856125ae565b9150612e3c82846125ae565b91508190509392505050565b6000612e5482866125ae565b9150612e6082856125ae565b9150612e6c82846125ae565b9150819050949350505050565b6000612e8582856125df565b9150612e9182846125ae565b9150612e9c826128c2565b91508190509392505050565b6000612eb382612cb2565b9150612ebf82856125ae565b9150612eca826127aa565b9150612ed682846125ae565b9150612ee182612a9a565b91508190509392505050565b6000612ef882612d58565b9150612f0482846125ae565b915081905092915050565b6000602082019050612f24600083018461251e565b92915050565b6000608082019050612f3f600083018761251e565b612f4c602083018661251e565b612f596040830185612dfe565b8181036060830152612f6b818461253c565b905095945050505050565b6000602082019050612f8b600083018461252d565b92915050565b60006020820190508181036000830152612fab8184612575565b905092915050565b60006060820190508181036000830152612fcd8186612575565b9050612fdc6020830185612dfe565b612fe9604083018461251e565b949350505050565b6000602082019050818103600083015261300a8161265e565b9050919050565b6000602082019050818103600083015261302a816126c4565b9050919050565b6000602082019050818103600083015261304a81612704565b9050919050565b6000602082019050818103600083015261306a8161276a565b9050919050565b6000602082019050818103600083015261308a8161285c565b9050919050565b600060208201905081810360008301526130aa81612902565b9050919050565b600060208201905081810360008301526130ca81612968565b9050919050565b600060208201905081810360008301526130ea816129ce565b9050919050565b6000602082019050818103600083015261310a81612a34565b9050919050565b6000602082019050818103600083015261312a81612ada565b9050919050565b6000602082019050818103600083015261314a81612b1a565b9050919050565b6000602082019050818103600083015261316a81612b80565b9050919050565b6000602082019050818103600083015261318a81612be6565b9050919050565b600060208201905081810360008301526131aa81612c4c565b9050919050565b600060208201905081810360008301526131ca81612cf2565b9050919050565b600060208201905081810360008301526131ea81612d98565b9050919050565b60006020820190506132066000830184612dfe565b92915050565b6000604051905081810181811067ffffffffffffffff82111715613233576132326135c9565b5b8060405250919050565b600067ffffffffffffffff821115613258576132576135c9565b5b601f19601f8301169050602081019050919050565b60008190508160005260206000209050919050565b600081519050919050565b600081519050919050565b600082825260208201905092915050565b600082825260208201905092915050565b600081905092915050565b60006132d082613444565b91506132db83613444565b9250827fffffffffffffffffffffffffffffffffffffffffffffffffffffffffffffffff038211156133105761330f61353c565b5b828201905092915050565b600061332682613444565b915061333183613444565b9250826133415761334061356b565b5b828204905092915050565b600061335782613444565b915061336283613444565b9250817fffffffffffffffffffffffffffffffffffffffffffffffffffffffffffffffff048311821515161561339b5761339a61353c565b5b828202905092915050565b60006133b182613444565b91506133bc83613444565b9250828210156133cf576133ce61353c565b5b828203905092915050565b60006133e582613424565b9050919050565b60008115159050919050565b60007fffffffff0000000000000000000000000000000000000000000000000000000082169050919050565b600073ffffffffffffffffffffffffffffffffffffffff82169050919050565b6000819050919050565b82818337600083830152505050565b60005b8381101561347b578082015181840152602081019050613460565b8381111561348a576000848401525b50505050565b600060028204905060018216806134a857607f821691505b602082108114156134bc576134bb61359a565b5b50919050565b60006134cd82613444565b91507fffffffffffffffffffffffffffffffffffffffffffffffffffffffffffffffff821415613500576134ff61353c565b5b600182019050919050565b600061351682613444565b915061352183613444565b9250826135315761353061356b565b5b828206905092915050565b7f4e487b7100000000000000000000000000000000000000000000000000000000600052601160045260246000fd5b7f4e487b7100000000000000000000000000000000000000000000000000000000600052601260045260246000fd5b7f4e487b7100000000000000000000000000000000000000000000000000000000600052602260045260246000fd5b7f4e487b7100000000000000000000000000000000000000000000000000000000600052604160045260246000fd5b6000601f19601f8301169050919050565b613612816133da565b811461361d57600080fd5b50565b613629816133ec565b811461363457600080fd5b50565b613640816133f8565b811461364b57600080fd5b50565b61365781613444565b811461366257600080fd5b5056fe416e204e465420772f20494420257320686173206265656e206d696e74656420746f2025734142434445464748494a4b4c4d4e4f505152535455565758595a6162636465666768696a6b6c6d6e6f707172737475767778797a303132333435363738392b2fa2646970667358221220fe4d34201fca0a1305d619c2b0591bfdd6f3a3b15654c56bdb6527212d4a96a064736f6c634300080000333c73766720786d6c6e733d27687474703a2f2f7777772e77332e6f72672f323030302f73766727207072657365727665417370656374526174696f3d27784d696e594d696e206d656574272076696577426f783d273020302033353020333530273e3c7374796c653e2e62617365207b2066696c6c3a2077686974653b20666f6e742d66616d696c793a2073657269663b20666f6e742d73697a653a20323470783b207d3c2f7374796c653e3c726563742077696474683d273130302527206865696768743d2731303025272066696c6c3d27626c61636b27202f3e3c7465787420783d273530252720793d273530252720636c6173733d27626173652720646f6d696e616e742d626173656c696e653d276d6964646c652720746578742d616e63686f723d276d6964646c65273e",
  "linkReferences": {},
  "deployedLinkReferences": {}
}